:02000000A12835
:100008007E1480312000101E9F280C08F400270061
:10001800131E93281312721F9D2820000C1E4928B6
:1000280022008E148E10F41E1B287708F304770321
:10003800031D9028730823009A00F21A3A28FE300C
:100048007305F8001030780603192D28BF30F20523
:10005800382820000C1A2D2821008C1220008C1220
:100068002700921273187215F216452820000C1AF0
:100078003A2821008C1220008C1227009212730853
:10008800F500270011121216902872187428F21D14
:100098005628F301D330F2057208F0008030F700DB
:1000A800F6016F287708031D722821008C16270097
:1000B8009216E6207208F000721D6A287B08F30089
:1000C8008030F70072140130F6077228F30180308F
:1000D800F7000130F607270012121116721D9D282D
:1000E80022008E148E107708031D812821008C169B
:1000F80027009216FE30F2058E28F31F882821006B
:100108008C16270092168E2821008C1220008C1243
:10011800270092120310F30D0310F70C9D28931E6D
:100128009D2820000C1E9D284830F2042700121636
:100138001116270093127E100900A228F620FB0052
:10014800F001F101F201F301F401F501F601F70103
:100158007E102000AF2821008E01013022008E0081
:1001680014303D00A500243023009E0080309D00FF
:1001780008309F0000309C001F309B0041309A00DF
:10018800D5201530FA004B30F900BE30890BCA284B
:10019800F90BCA28FA0BCA280032083022008E064A
:1001A800C52821008C1623008C1221000C16230070
:1001B8000C1220008C120C12F02027001116921637
:1001C80012160800F01E0800751CED2822000E15F6
:1001D800080022000E110800C0308B0010302100EA
:0601E80090000800423403
:020000040001F9
:08000E008C17303FFF3FFF3F5C
:00000001FF
