:02000000AD2829
:100008007E1480312000101EAB280C08F400270055
:10001800131E9F281312721FA92820000C1E58288F
:1000280072194828F41E1A287708F3047703031D69
:100038009C28730823009A00F21A3928FE307305A9
:10004800F8001030780603192C28BF30F20537283D
:1000580020000C1A2C2821008C1220008C1227005A
:10006800921273187215F216442820000C1A3928B7
:1000780021008C1220008C12270092127308F500C0
:100088002700111212169C28F41E4D28FA30F2058A
:1000980054287B08F3008030F70072140130F6070B
:1000A800270011121216A92872188328F21D652834
:1000B800F301D330F2057208F0008030F700F60142
:1000C8007E287708031D812821008C1627009216A8
:1000D800F2207208F000721D79287B08F300803046
:1000E800F70072140130F6078128F3018030F70019
:1000F8000130F607270012121116721DA928770879
:10010800031D8D2821008C16270092161212111635
:100118009A28F31F942821008C16270092169A28F3
:1001280021008C1220008C12270092120310F30D6C
:100138000310F70CA928931EA92820000C1EA92833
:100148004830F204270012161116270093127E1069
:100158000900AE280221FB00F001F101F201F301D0
:10016800F401F501F601F7017E102000BB282100FB
:100178008E01013022008E0014303D00A50024308D
:1001880023009E0080309D0008309F0000309C00B6
:100198001F309B0041309A00E1201530FA004B30A7
:1001A800F900BE30890BD628F90BD628FA0BD628C9
:1001B8000032083022008E06D12821008C16230038
:1001C8008C1221000C1623000C1220008C120C1229
:1001D800FC2027001116921612160800F01E0800BF
:1001E800751CF92822000E15080022000E110800BF
:0E01F800C0308B00103021009000080042340F
:020000040001F9
:08000E008C17303FFF3FFF3F5C
:00000001FF
